{
  "abi": [
    {
      "inputs": [
        {
          "internalType": "address",
          "name": "_feeAccount",
          "type": "address"
        },
        {
          "internalType": "uint8",
          "name": "_feePercent",
          "type": "uint8"
        }
      ],
      "stateMutability": "nonpayable",
      "type": "constructor"
    },
    {
      "anonymous": false,
      "inputs": [
        {
          "indexed": false,
          "internalType": "uint256",
          "name": "_id",
          "type": "uint256"
        },
        {
          "indexed": false,
          "internalType": "address",
          "name": "_user",
          "type": "address"
        },
        {
          "indexed": false,
          "internalType": "address",
          "name": "_tokenGet",
          "type": "address"
        },
        {
          "indexed": false,
          "internalType": "uint256",
          "name": "_amountGet",
          "type": "uint256"
        },
        {
          "indexed": false,
          "internalType": "address",
          "name": "_tokenGive",
          "type": "address"
        },
        {
          "indexed": false,
          "internalType": "uint256",
          "name": "_amountGive",
          "type": "uint256"
        },
        {
          "indexed": false,
          "internalType": "uint256",
          "name": "_timestamp",
          "type": "uint256"
        }
      ],
      "name": "Cancel",
      "type": "event"
    },
    {
      "anonymous": false,
      "inputs": [
        {
          "indexed": false,
          "internalType": "address",
          "name": "_token",
          "type": "address"
        },
        {
          "indexed": false,
          "internalType": "address",
          "name": "_user",
          "type": "address"
        },
        {
          "indexed": false,
          "internalType": "uint256",
          "name": "_amount",
          "type": "uint256"
        },
        {
          "indexed": false,
          "internalType": "uint256",
          "name": "_balance",
          "type": "uint256"
        }
      ],
      "name": "Deposit",
      "type": "event"
    },
    {
      "anonymous": false,
      "inputs": [
        {
          "indexed": false,
          "internalType": "uint256",
          "name": "_id",
          "type": "uint256"
        },
        {
          "indexed": false,
          "internalType": "address",
          "name": "_user",
          "type": "address"
        },
        {
          "indexed": false,
          "internalType": "address",
          "name": "_tokenGet",
          "type": "address"
        },
        {
          "indexed": false,
          "internalType": "uint256",
          "name": "_amountGet",
          "type": "uint256"
        },
        {
          "indexed": false,
          "internalType": "address",
          "name": "_tokenGive",
          "type": "address"
        },
        {
          "indexed": false,
          "internalType": "uint256",
          "name": "_amountGive",
          "type": "uint256"
        },
        {
          "indexed": false,
          "internalType": "uint256",
          "name": "_timestamp",
          "type": "uint256"
        }
      ],
      "name": "Order",
      "type": "event"
    },
    {
      "anonymous": false,
      "inputs": [
        {
          "indexed": false,
          "internalType": "uint256",
          "name": "_id",
          "type": "uint256"
        },
        {
          "indexed": false,
          "internalType": "address",
          "name": "_user",
          "type": "address"
        },
        {
          "indexed": false,
          "internalType": "address",
          "name": "_tokenGet",
          "type": "address"
        },
        {
          "indexed": false,
          "internalType": "uint256",
          "name": "_amountGet",
          "type": "uint256"
        },
        {
          "indexed": false,
          "internalType": "address",
          "name": "_tokenGive",
          "type": "address"
        },
        {
          "indexed": false,
          "internalType": "uint256",
          "name": "_amountGive",
          "type": "uint256"
        },
        {
          "indexed": false,
          "internalType": "address",
          "name": "_creator",
          "type": "address"
        },
        {
          "indexed": false,
          "internalType": "uint256",
          "name": "_timestamp",
          "type": "uint256"
        }
      ],
      "name": "Trade",
      "type": "event"
    },
    {
      "anonymous": false,
      "inputs": [
        {
          "indexed": false,
          "internalType": "address",
          "name": "_token",
          "type": "address"
        },
        {
          "indexed": false,
          "internalType": "address",
          "name": "_user",
          "type": "address"
        },
        {
          "indexed": false,
          "internalType": "uint256",
          "name": "_amount",
          "type": "uint256"
        },
        {
          "indexed": false,
          "internalType": "uint256",
          "name": "_balance",
          "type": "uint256"
        }
      ],
      "name": "Withdraw",
      "type": "event"
    },
    {
      "inputs": [
        {
          "internalType": "address",
          "name": "_token",
          "type": "address"
        },
        {
          "internalType": "address",
          "name": "_user",
          "type": "address"
        }
      ],
      "name": "balanceOf",
      "outputs": [
        {
          "internalType": "uint256",
          "name": "",
          "type": "uint256"
        }
      ],
      "stateMutability": "view",
      "type": "function"
    },
    {
      "inputs": [
        {
          "internalType": "uint256",
          "name": "_id",
          "type": "uint256"
        }
      ],
      "name": "cancelOrder",
      "outputs": [],
      "stateMutability": "nonpayable",
      "type": "function"
    },
    {
      "inputs": [
        {
          "internalType": "address",
          "name": "_tokenAddress",
          "type": "address"
        },
        {
          "internalType": "uint256",
          "name": "_amount",
          "type": "uint256"
        }
      ],
      "name": "depositToken",
      "outputs": [],
      "stateMutability": "nonpayable",
      "type": "function"
    },
    {
      "inputs": [],
      "name": "feeAccount",
      "outputs": [
        {
          "internalType": "address",
          "name": "",
          "type": "address"
        }
      ],
      "stateMutability": "view",
      "type": "function"
    },
    {
      "inputs": [],
      "name": "feePercent",
      "outputs": [
        {
          "internalType": "uint8",
          "name": "",
          "type": "uint8"
        }
      ],
      "stateMutability": "view",
      "type": "function"
    },
    {
      "inputs": [
        {
          "internalType": "uint256",
          "name": "_id",
          "type": "uint256"
        }
      ],
      "name": "fillOrder",
      "outputs": [],
      "stateMutability": "nonpayable",
      "type": "function"
    },
    {
      "inputs": [
        {
          "internalType": "address",
          "name": "tokenGet",
          "type": "address"
        },
        {
          "internalType": "uint256",
          "name": "getAmount",
          "type": "uint256"
        },
        {
          "internalType": "address",
          "name": "tokenGive",
          "type": "address"
        },
        {
          "internalType": "uint256",
          "name": "giveAmount",
          "type": "uint256"
        }
      ],
      "name": "makeOrder",
      "outputs": [
        {
          "internalType": "bool",
          "name": "",
          "type": "bool"
        }
      ],
      "stateMutability": "nonpayable",
      "type": "function"
    },
    {
      "inputs": [
        {
          "internalType": "uint256",
          "name": "",
          "type": "uint256"
        }
      ],
      "name": "orderCancelled",
      "outputs": [
        {
          "internalType": "bool",
          "name": "",
          "type": "bool"
        }
      ],
      "stateMutability": "view",
      "type": "function"
    },
    {
      "inputs": [],
      "name": "orderCount",
      "outputs": [
        {
          "internalType": "uint256",
          "name": "",
          "type": "uint256"
        }
      ],
      "stateMutability": "view",
      "type": "function"
    },
    {
      "inputs": [
        {
          "internalType": "uint256",
          "name": "",
          "type": "uint256"
        }
      ],
      "name": "orderFilled",
      "outputs": [
        {
          "internalType": "bool",
          "name": "",
          "type": "bool"
        }
      ],
      "stateMutability": "view",
      "type": "function"
    },
    {
      "inputs": [
        {
          "internalType": "uint256",
          "name": "",
          "type": "uint256"
        }
      ],
      "name": "orders",
      "outputs": [
        {
          "internalType": "uint256",
          "name": "id",
          "type": "uint256"
        },
        {
          "internalType": "address",
          "name": "user",
          "type": "address"
        },
        {
          "internalType": "address",
          "name": "tokenGet",
          "type": "address"
        },
        {
          "internalType": "uint256",
          "name": "amountGet",
          "type": "uint256"
        },
        {
          "internalType": "address",
          "name": "tokenGive",
          "type": "address"
        },
        {
          "internalType": "uint256",
          "name": "amountGive",
          "type": "uint256"
        },
        {
          "internalType": "uint256",
          "name": "timestamp",
          "type": "uint256"
        }
      ],
      "stateMutability": "view",
      "type": "function"
    },
    {
      "inputs": [
        {
          "internalType": "address",
          "name": "",
          "type": "address"
        },
        {
          "internalType": "address",
          "name": "",
          "type": "address"
        }
      ],
      "name": "tokens",
      "outputs": [
        {
          "internalType": "uint256",
          "name": "",
          "type": "uint256"
        }
      ],
      "stateMutability": "view",
      "type": "function"
    },
    {
      "inputs": [
        {
          "internalType": "address",
          "name": "_tokenAddress",
          "type": "address"
        },
        {
          "internalType": "uint256",
          "name": "_amount",
          "type": "uint256"
        }
      ],
      "name": "withdrawToken",
      "outputs": [],
      "stateMutability": "nonpayable",
      "type": "function"
    }
  ],
  "bytecode": {
    "object": "0x608060405234801561001057600080fd5b50604051610e93380380610e9383398101604081905261002f91610061565b6000805460ff909216600160a01b026001600160a81b03199092166001600160a01b03909316929092171790556100ad565b6000806040838503121561007457600080fd5b82516001600160a01b038116811461008b57600080fd5b602084015190925060ff811681146100a257600080fd5b809150509250929050565b610dd7806100bc6000396000f3fe608060405234801561001057600080fd5b50600436106100cf5760003560e01c806367b830ad1161008c5780639e281a98116100665780639e281a98146101ed578063a85c38ef14610200578063e9c189661461026d578063f7888aec1461029057600080fd5b806367b830ad146101a15780637fd6f15c146101b45780639a5c90aa146101da57600080fd5b80632453ffa8146100d4578063338b5dea146100f05780634a93e0da14610105578063508493bc14610138578063514fcac71461016357806365e17c9d14610176575b600080fd5b6100dd60015481565b6040519081526020015b60405180910390f35b6101036100fe366004610bef565b6102a3565b005b610128610113366004610c19565b60056020526000908152604090205460ff1681565b60405190151581526020016100e7565b6100dd610146366004610c32565b600260209081526000928352604080842090915290825290205481565b610103610171366004610c19565b6103b5565b600054610189906001600160a01b031681565b6040516001600160a01b0390911681526020016100e7565b6101036101af366004610c19565b610521565b6000546101c890600160a01b900460ff1681565b60405160ff90911681526020016100e7565b6101286101e8366004610c65565b6106d2565b6101036101fb366004610bef565b6108ab565b61025a61020e366004610c19565b6003602081905260009182526040909120805460018201546002830154938301546004840154600585015460069095015493956001600160a01b03938416959084169492939091169187565b6040516100e79796959493929190610ca9565b61012861027b366004610c19565b60046020526000908152604090205460ff1681565b6100dd61029e366004610c32565b610980565b6040516323b872dd60e01b8152336004820152306024820152604481018290526001600160a01b038316906323b872dd906064016020604051808303816000875af11580156102f6573d6000803e3d6000fd5b505050506040513d601f19601f8201168201806040525081019061031a9190610ce7565b506001600160a01b03821660009081526002602090815260408083203384529091528120805483929061034e908490610d26565b909155507fdcbc1c05240f31ff3ad067ef1ee35ce4997762752e3a095284754544f4c709d790508233836103828383610980565b604080516001600160a01b0395861681529490931660208501529183015260608201526080015b60405180910390a15050565b600081815260036020818152604092839020835160e081018552815480825260018301546001600160a01b0390811694830194909452600283015484169582019590955292810154606084015260048101549091166080830152600581015460a08301526006015460c08201529082146104695760405162461bcd60e51b815260206004820152601060248201526f125b9d985b1a59081bdc99195c881a5960821b60448201526064015b60405180910390fd5b60208101516001600160a01b031633146104b45760405162461bcd60e51b815260206004820152600c60248201526b155b985d5d1a1bdc9a5e995960a21b6044820152606401610460565b600082815260046020908152604091829020805460ff19166001179055820151828201516060840151608085015160a086015194517f77de1da0be5f2d3b110d05c6694e5c4ff2d9da7cd23d84353ecf78c7b5acec61956103a99589959094909390929091904290610ca9565b600081815260036020818152604092839020835160e0810185528154815260018201546001600160a01b039081169382019390935260028201548316948101949094529182015460608401526004820154166080830152600581015460a08301526006015460c0820152811580159061059c57506001548211155b6105db5760405162461bcd60e51b815260206004820152601060248201526f125b9d985b1a59081bdc99195c881a5960821b6044820152606401610460565b60008281526004602052604090205460ff16156106305760405162461bcd60e51b815260206004820152601360248201527213dc99195c881dd85cc818d85b98d95b1b1959606a1b6044820152606401610460565b60008281526005602052604090205460ff161561068f5760405162461bcd60e51b815260206004820152601860248201527f4f726465722077617320616c72656164792066696c6c656400000000000000006044820152606401610460565b6106b5816000015182602001518360400151846060015185608001518660a001516109ad565b516000908152600560205260409020805460ff1916600117905550565b6000816106df8433610980565b10156107245760405162461bcd60e51b8152602060048201526014602482015273496e73756666696369656e742062616c616e636560601b6044820152606401610460565b61072f606485610d4f565b1561079b5760405162461bcd60e51b815260206004820152603660248201527f496e76616c69642076616c756520666f72205f616d6f756e744765742e20204d6044820152750757374206265206d756c7469706c65206f66203130360541b6064820152608401610460565b600180546107a891610d26565b60018181556040805160e0810182528381523360208083018281526001600160a01b038c8116858701908152606086018d81528c83166080880190815260a088018d81524260c08a0181815260009d8e526003988990529c8b902099518a559551898c0180549187166001600160a01b0319928316179055935160028a0180549187169186169190911790559151958801959095559351600487018054919093169116179055905160058401559451600690920191909155915490517f9d33853d43e3607b4cc01fdc78338ff2dca6fef7db9232dae6d3eb55fbc3b1099361089893918a918a918a918a91610ca9565b60405180910390a1506001949350505050565b60405163a9059cbb60e01b8152336004820152602481018290526001600160a01b0383169063a9059cbb906044016020604051808303816000875af11580156108f8573d6000803e3d6000fd5b505050506040513d601f19601f8201168201806040525081019061091c9190610ce7565b506001600160a01b038216600090815260026020908152604080832033845290915281208054839290610950908490610d63565b909155507ff341246adaac6f497bc2a656f546ab9e182111d630394f0c57c710a59a2cb567905082338361038283835b6001600160a01b038083166000908152600260209081526040808320938516835292905220545b92915050565b600080546064906109c890600160a01b900460ff1686610d76565b6109d29190610d8d565b90506109de8185610d26565b6109e88633610980565b1015610a2d5760405162461bcd60e51b8152602060048201526014602482015273496e73756666696369656e742062616c616e636560601b6044820152606401610460565b6001600160a01b038084166000908152600260209081526040808320938a1683529290529081208054849290610a64908490610d63565b90915550506001600160a01b038316600090815260026020908152604080832033845290915281208054849290610a9c908490610d26565b90915550506001600160a01b038086166000908152600260209081526040808320938a1683529290529081208054869290610ad8908490610d26565b90915550610ae890508185610d26565b6001600160a01b038616600090815260026020908152604080832033845290915281208054909190610b1b908490610d63565b90915550506001600160a01b038086166000908152600260209081526040808320835490941683529290529081208054839290610b59908490610d26565b9091555050604080518881523360208201526001600160a01b038781168284015260608201879052858116608083015260a08201859052881660c08201524260e082015290517f0dddf4182dc0fc1a311cb75f049c97403c6b8a99cf6b2229a36e7c526acb3f81918190036101000190a150505050505050565b80356001600160a01b0381168114610bea57600080fd5b919050565b60008060408385031215610c0257600080fd5b610c0b83610bd3565b946020939093013593505050565b600060208284031215610c2b57600080fd5b5035919050565b60008060408385031215610c4557600080fd5b610c4e83610bd3565b9150610c5c60208401610bd3565b90509250929050565b60008060008060808587031215610c7b57600080fd5b610c8485610bd3565b935060208501359250610c9960408601610bd3565b9396929550929360600135925050565b9687526001600160a01b03958616602088015293851660408701526060860192909252909216608084015260a083019190915260c082015260e00190565b600060208284031215610cf957600080fd5b81518015158114610d0957600080fd5b9392505050565b634e487b7160e01b600052601160045260246000fd5b808201808211156109a7576109a7610d10565b634e487b7160e01b600052601260045260246000fd5b600082610d5e57610d5e610d39565b500690565b818103818111156109a7576109a7610d10565b80820281158282048414176109a7576109a7610d10565b600082610d9c57610d9c610d39565b50049056fea2646970667358221220101d19cd283a4e5ffd40158f22685044dfb39b7ad177cc7ed6ca00b2fd3b4b6264736f6c63430008130033",
    "linkReferences": {}
  },
  "methodIdentifiers": {
    "balanceOf(address,address)": "f7888aec",
    "cancelOrder(uint256)": "514fcac7",
    "depositToken(address,uint256)": "338b5dea",
    "feeAccount()": "65e17c9d",
    "feePercent()": "7fd6f15c",
    "fillOrder(uint256)": "67b830ad",
    "makeOrder(address,uint256,address,uint256)": "9a5c90aa",
    "orderCancelled(uint256)": "e9c18966",
    "orderCount()": "2453ffa8",
    "orderFilled(uint256)": "4a93e0da",
    "orders(uint256)": "a85c38ef",
    "tokens(address,address)": "508493bc",
    "withdrawToken(address,uint256)": "9e281a98"
  },
  "id": 0
}